{
  "transactions": [
    {
      "hash": "0x285a60072bce090b5a5fb319f75778b369772e891740678ab9d03bd41f49ec3a",
      "transactionType": "CALL",
      "contractName": null,
      "contractAddress": "0x779877a7b0d9e8603169ddbd7836e478b4624789",
      "function": "transferAndCall(address,uint256,bytes)",
      "arguments": [
        "0x9DdfaCa8183c41ad55329BdeeD9F6A8d53168B1B",
        "2000000000000000000",
        "0x6f8b67ac2dc3a389f139a3783d95a714855cb8ccf50c86b22a4f5ad9b1c2ca57"
      ],
      "transaction": {
        "from": "0xe4267c260090f0cd85aae5dcf1bf581f81df81c6",
        "to": "0x779877a7b0d9e8603169ddbd7836e478b4624789",
        "gas": "0x14cbb",
        "value": "0x0",
        "input": "0x4000aea00000000000000000000000009ddfaca8183c41ad55329bdeed9f6a8d53168b1b0000000000000000000000000000000000000000000000001bc16d674ec80000000000000000000000000000000000000000000000000000000000000000006000000000000000000000000000000000000000000000000000000000000000206f8b67ac2dc3a389f139a3783d95a714855cb8ccf50c86b22a4f5ad9b1c2ca57",
        "nonce": "0x53",
        "chainId": "0xaa36a7"
      },
      "additionalContracts": [],
      "isFixedGasLimit": false
    }
  ],
  "receipts": [
    {
      "status": "0x1",
      "cumulativeGasUsed": "0x26306c1",
      "logs": [
        {
          "address": "0x779877a7b0d9e8603169ddbd7836e478b4624789",
          "topics": [
            "0xddf252ad1be2c89b69c2b068fc378daa952ba7f163c4a11628f55a4df523b3ef",
            "0x000000000000000000000000e4267c260090f0cd85aae5dcf1bf581f81df81c6",
            "0x0000000000000000000000009ddfaca8183c41ad55329bdeed9f6a8d53168b1b"
          ],
          "data": "0x0000000000000000000000000000000000000000000000001bc16d674ec80000",
          "blockHash": "0xd5b18e6f0c2ac278c3f84aee0c859855e70f3b0680144dd866a9b16d21fd87bf",
          "blockNumber": "0x8f8156",
          "blockTimestamp": "0x68ed49e4",
          "transactionHash": "0x285a60072bce090b5a5fb319f75778b369772e891740678ab9d03bd41f49ec3a",
          "transactionIndex": "0xdc",
          "logIndex": "0x131",
          "removed": false
        },
        {
          "address": "0x779877a7b0d9e8603169ddbd7836e478b4624789",
          "topics": [
            "0xe19260aff97b920c7df27010903aeb9c8d2be5d310a2c67824cf3f15396e4c16",
            "0x000000000000000000000000e4267c260090f0cd85aae5dcf1bf581f81df81c6",
            "0x0000000000000000000000009ddfaca8183c41ad55329bdeed9f6a8d53168b1b"
          ],
          "data": "0x0000000000000000000000000000000000000000000000001bc16d674ec80000000000000000000000000000000000000000000000000000000000000000004000000000000000000000000000000000000000000000000000000000000000206f8b67ac2dc3a389f139a3783d95a714855cb8ccf50c86b22a4f5ad9b1c2ca57",
          "blockHash": "0xd5b18e6f0c2ac278c3f84aee0c859855e70f3b0680144dd866a9b16d21fd87bf",
          "blockNumber": "0x8f8156",
          "blockTimestamp": "0x68ed49e4",
          "transactionHash": "0x285a60072bce090b5a5fb319f75778b369772e891740678ab9d03bd41f49ec3a",
          "transactionIndex": "0xdc",
          "logIndex": "0x132",
          "removed": false
        },
        {
          "address": "0x9ddfaca8183c41ad55329bdeed9f6a8d53168b1b",
          "topics": [
            "0x1ced9348ff549fceab2ac57cd3a9de38edaaab274b725ee82c23e8fc8c4eec7a",
            "0x6f8b67ac2dc3a389f139a3783d95a714855cb8ccf50c86b22a4f5ad9b1c2ca57"
          ],
          "data": "0x000000000000000000000000000000000000000000000000a688906bd8b00019000000000000000000000000000000000000000000000000c249fdd327780019",
          "blockHash": "0xd5b18e6f0c2ac278c3f84aee0c859855e70f3b0680144dd866a9b16d21fd87bf",
          "blockNumber": "0x8f8156",
          "blockTimestamp": "0x68ed49e4",
          "transactionHash": "0x285a60072bce090b5a5fb319f75778b369772e891740678ab9d03bd41f49ec3a",
          "transactionIndex": "0xdc",
          "logIndex": "0x133",
          "removed": false
        }
      ],
      "logsBloom": "0x00000004000000000000000000000000000000000020000000000000020000000000000000000000000000000000000000000000000000000000000000000000000000000000000000000008000000000000000000000000000020000020000008000000000000000000000000000000000000000000000000004010000140000000000000000000000000010000800010000020000000000000000000000000000000000002000000000000010000000000000000000000000004000000000000000002000000000000000000000000000000000000000100000400000000000010000000000000802000000000000000000000000000000000000000000000",
      "type": "0x2",
      "transactionHash": "0x285a60072bce090b5a5fb319f75778b369772e891740678ab9d03bd41f49ec3a",
      "transactionIndex": "0xdc",
      "blockHash": "0xd5b18e6f0c2ac278c3f84aee0c859855e70f3b0680144dd866a9b16d21fd87bf",
      "blockNumber": "0x8f8156",
      "gasUsed": "0xf0e5",
      "effectiveGasPrice": "0x100feb",
      "from": "0xe4267c260090f0cd85aae5dcf1bf581f81df81c6",
      "to": "0x779877a7b0d9e8603169ddbd7836e478b4624789",
      "contractAddress": null
    }
  ],
  "libraries": [],
  "pending": [],
  "returns": {},
  "timestamp": 1760381413231,
  "chain": 11155111,
  "commit": "9dfeb85"
}