{
  "transactions": [
    {
      "hash": "0xd0b27172d41cac8a8bec1683c0e79b9e44d4a03583e72096fcb2fcfd574078ed",
      "transactionType": "CALL",
      "contractName": null,
      "contractAddress": "0x779877a7b0d9e8603169ddbd7836e478b4624789",
      "function": "transferAndCall(address,uint256,bytes)",
      "arguments": [
        "0x9DdfaCa8183c41ad55329BdeeD9F6A8d53168B1B",
        "25",
        "0x6f8b67ac2dc3a389f139a3783d95a714855cb8ccf50c86b22a4f5ad9b1c2ca57"
      ],
      "transaction": {
        "from": "0xe4267c260090f0cd85aae5dcf1bf581f81df81c6",
        "to": "0x779877a7b0d9e8603169ddbd7836e478b4624789",
        "gas": "0x15ff7",
        "value": "0x0",
        "input": "0x4000aea00000000000000000000000009ddfaca8183c41ad55329bdeed9f6a8d53168b1b0000000000000000000000000000000000000000000000000000000000000019000000000000000000000000000000000000000000000000000000000000006000000000000000000000000000000000000000000000000000000000000000206f8b67ac2dc3a389f139a3783d95a714855cb8ccf50c86b22a4f5ad9b1c2ca57",
        "nonce": "0x51",
        "chainId": "0xaa36a7"
      },
      "additionalContracts": [],
      "isFixedGasLimit": false
    }
  ],
  "receipts": [
    {
      "status": "0x1",
      "cumulativeGasUsed": "0xd3b6c5",
      "logs": [
        {
          "address": "0x779877a7b0d9e8603169ddbd7836e478b4624789",
          "topics": [
            "0xddf252ad1be2c89b69c2b068fc378daa952ba7f163c4a11628f55a4df523b3ef",
            "0x000000000000000000000000e4267c260090f0cd85aae5dcf1bf581f81df81c6",
            "0x0000000000000000000000009ddfaca8183c41ad55329bdeed9f6a8d53168b1b"
          ],
          "data": "0x0000000000000000000000000000000000000000000000000000000000000019",
          "blockHash": "0xd90890e94d41124358f7d6d0c938f4dc93571f1c48e6c4421d90e2149efb7632",
          "blockNumber": "0x8f8121",
          "blockTimestamp": "0x68ed4768",
          "transactionHash": "0xd0b27172d41cac8a8bec1683c0e79b9e44d4a03583e72096fcb2fcfd574078ed",
          "transactionIndex": "0x85",
          "logIndex": "0xb2",
          "removed": false
        },
        {
          "address": "0x779877a7b0d9e8603169ddbd7836e478b4624789",
          "topics": [
            "0xe19260aff97b920c7df27010903aeb9c8d2be5d310a2c67824cf3f15396e4c16",
            "0x000000000000000000000000e4267c260090f0cd85aae5dcf1bf581f81df81c6",
            "0x0000000000000000000000009ddfaca8183c41ad55329bdeed9f6a8d53168b1b"
          ],
          "data": "0x0000000000000000000000000000000000000000000000000000000000000019000000000000000000000000000000000000000000000000000000000000004000000000000000000000000000000000000000000000000000000000000000206f8b67ac2dc3a389f139a3783d95a714855cb8ccf50c86b22a4f5ad9b1c2ca57",
          "blockHash": "0xd90890e94d41124358f7d6d0c938f4dc93571f1c48e6c4421d90e2149efb7632",
          "blockNumber": "0x8f8121",
          "blockTimestamp": "0x68ed4768",
          "transactionHash": "0xd0b27172d41cac8a8bec1683c0e79b9e44d4a03583e72096fcb2fcfd574078ed",
          "transactionIndex": "0x85",
          "logIndex": "0xb3",
          "removed": false
        },
        {
          "address": "0x9ddfaca8183c41ad55329bdeed9f6a8d53168b1b",
          "topics": [
            "0x1ced9348ff549fceab2ac57cd3a9de38edaaab274b725ee82c23e8fc8c4eec7a",
            "0x6f8b67ac2dc3a389f139a3783d95a714855cb8ccf50c86b22a4f5ad9b1c2ca57"
          ],
          "data": "0x0000000000000000000000000000000000000000000000008ac7230489e800000000000000000000000000000000000000000000000000008ac7230489e80019",
          "blockHash": "0xd90890e94d41124358f7d6d0c938f4dc93571f1c48e6c4421d90e2149efb7632",
          "blockNumber": "0x8f8121",
          "blockTimestamp": "0x68ed4768",
          "transactionHash": "0xd0b27172d41cac8a8bec1683c0e79b9e44d4a03583e72096fcb2fcfd574078ed",
          "transactionIndex": "0x85",
          "logIndex": "0xb4",
          "removed": false
        }
      ],
      "logsBloom": "0x00000004000000000000000000000000000000000020000000000000020000000000000000000000000000000000000000000000000000000000000000000000000000000000000000000008000000000000000000000000000020000020000008000000000000000000000000000000000000000000000000004010000140000000000000000000000000010000800010000020000000000000000000000000000000000002000000000000010000000000000000000000000004000000000000000002000000000000000000000000000000000000000100000400000000000010000000000000802000000000000000000000000000000000000000000000",
      "type": "0x2",
      "transactionHash": "0xd0b27172d41cac8a8bec1683c0e79b9e44d4a03583e72096fcb2fcfd574078ed",
      "transactionIndex": "0x85",
      "blockHash": "0xd90890e94d41124358f7d6d0c938f4dc93571f1c48e6c4421d90e2149efb7632",
      "blockNumber": "0x8f8121",
      "gasUsed": "0xf0a9",
      "effectiveGasPrice": "0xf4250",
      "from": "0xe4267c260090f0cd85aae5dcf1bf581f81df81c6",
      "to": "0x779877a7b0d9e8603169ddbd7836e478b4624789",
      "contractAddress": null
    }
  ],
  "libraries": [],
  "pending": [],
  "returns": {},
  "timestamp": 1760380777919,
  "chain": 11155111,
  "commit": "9dfeb85"
}