{
  "transactions": [
    {
      "hash": "0x31348ccefd1b176e9d1a02f3727ca5e724300d2f6cca83a63150cb6edfa79092",
      "transactionType": "CALL",
      "contractName": null,
      "contractAddress": "0x779877a7b0d9e8603169ddbd7836e478b4624789",
      "function": "transferAndCall(address,uint256,bytes)",
      "arguments": [
        "0x9DdfaCa8183c41ad55329BdeeD9F6A8d53168B1B",
        "2000000000000000000",
        "0x6f8b67ac2dc3a389f139a3783d95a714855cb8ccf50c86b22a4f5ad9b1c2ca57"
      ],
      "transaction": {
        "from": "0xe4267c260090f0cd85aae5dcf1bf581f81df81c6",
        "to": "0x779877a7b0d9e8603169ddbd7836e478b4624789",
        "gas": "0x14cbb",
        "value": "0x0",
        "input": "0x4000aea00000000000000000000000009ddfaca8183c41ad55329bdeed9f6a8d53168b1b0000000000000000000000000000000000000000000000001bc16d674ec80000000000000000000000000000000000000000000000000000000000000000006000000000000000000000000000000000000000000000000000000000000000206f8b67ac2dc3a389f139a3783d95a714855cb8ccf50c86b22a4f5ad9b1c2ca57",
        "nonce": "0x52",
        "chainId": "0xaa36a7"
      },
      "additionalContracts": [],
      "isFixedGasLimit": false
    }
  ],
  "receipts": [
    {
      "status": "0x1",
      "cumulativeGasUsed": "0x192f0cb",
      "logs": [
        {
          "address": "0x779877a7b0d9e8603169ddbd7836e478b4624789",
          "topics": [
            "0xddf252ad1be2c89b69c2b068fc378daa952ba7f163c4a11628f55a4df523b3ef",
            "0x000000000000000000000000e4267c260090f0cd85aae5dcf1bf581f81df81c6",
            "0x0000000000000000000000009ddfaca8183c41ad55329bdeed9f6a8d53168b1b"
          ],
          "data": "0x0000000000000000000000000000000000000000000000001bc16d674ec80000",
          "blockHash": "0xcf87109aaab39af7b0d83cc2d0d1f71b01be53f923fd0d443293a9ad709fdd20",
          "blockNumber": "0x8f8136",
          "blockTimestamp": "0x68ed4864",
          "transactionHash": "0x31348ccefd1b176e9d1a02f3727ca5e724300d2f6cca83a63150cb6edfa79092",
          "transactionIndex": "0x93",
          "logIndex": "0x15e",
          "removed": false
        },
        {
          "address": "0x779877a7b0d9e8603169ddbd7836e478b4624789",
          "topics": [
            "0xe19260aff97b920c7df27010903aeb9c8d2be5d310a2c67824cf3f15396e4c16",
            "0x000000000000000000000000e4267c260090f0cd85aae5dcf1bf581f81df81c6",
            "0x0000000000000000000000009ddfaca8183c41ad55329bdeed9f6a8d53168b1b"
          ],
          "data": "0x0000000000000000000000000000000000000000000000001bc16d674ec80000000000000000000000000000000000000000000000000000000000000000004000000000000000000000000000000000000000000000000000000000000000206f8b67ac2dc3a389f139a3783d95a714855cb8ccf50c86b22a4f5ad9b1c2ca57",
          "blockHash": "0xcf87109aaab39af7b0d83cc2d0d1f71b01be53f923fd0d443293a9ad709fdd20",
          "blockNumber": "0x8f8136",
          "blockTimestamp": "0x68ed4864",
          "transactionHash": "0x31348ccefd1b176e9d1a02f3727ca5e724300d2f6cca83a63150cb6edfa79092",
          "transactionIndex": "0x93",
          "logIndex": "0x15f",
          "removed": false
        },
        {
          "address": "0x9ddfaca8183c41ad55329bdeed9f6a8d53168b1b",
          "topics": [
            "0x1ced9348ff549fceab2ac57cd3a9de38edaaab274b725ee82c23e8fc8c4eec7a",
            "0x6f8b67ac2dc3a389f139a3783d95a714855cb8ccf50c86b22a4f5ad9b1c2ca57"
          ],
          "data": "0x0000000000000000000000000000000000000000000000008ac7230489e80019000000000000000000000000000000000000000000000000a688906bd8b00019",
          "blockHash": "0xcf87109aaab39af7b0d83cc2d0d1f71b01be53f923fd0d443293a9ad709fdd20",
          "blockNumber": "0x8f8136",
          "blockTimestamp": "0x68ed4864",
          "transactionHash": "0x31348ccefd1b176e9d1a02f3727ca5e724300d2f6cca83a63150cb6edfa79092",
          "transactionIndex": "0x93",
          "logIndex": "0x160",
          "removed": false
        }
      ],
      "logsBloom": "0x00000004000000000000000000000000000000000020000000000000020000000000000000000000000000000000000000000000000000000000000000000000000000000000000000000008000000000000000000000000000020000020000008000000000000000000000000000000000000000000000000004010000140000000000000000000000000010000800010000020000000000000000000000000000000000002000000000000010000000000000000000000000004000000000000000002000000000000000000000000000000000000000100000400000000000010000000000000802000000000000000000000000000000000000000000000",
      "type": "0x2",
      "transactionHash": "0x31348ccefd1b176e9d1a02f3727ca5e724300d2f6cca83a63150cb6edfa79092",
      "transactionIndex": "0x93",
      "blockHash": "0xcf87109aaab39af7b0d83cc2d0d1f71b01be53f923fd0d443293a9ad709fdd20",
      "blockNumber": "0x8f8136",
      "gasUsed": "0xf0e5",
      "effectiveGasPrice": "0xf424d",
      "from": "0xe4267c260090f0cd85aae5dcf1bf581f81df81c6",
      "to": "0x779877a7b0d9e8603169ddbd7836e478b4624789",
      "contractAddress": null
    }
  ],
  "libraries": [],
  "pending": [],
  "returns": {},
  "timestamp": 1760381031426,
  "chain": 11155111,
  "commit": "9dfeb85"
}