{
  "transactions": [
    {
      "hash": "0xac3a3ccfdb91632dcf9f2dc306c39900a00e9c69d4e4cf47235e14e8e05ef306",
      "transactionType": "CALL",
      "contractName": null,
      "contractAddress": "0x779877a7b0d9e8603169ddbd7836e478b4624789",
      "function": "transferAndCall(address,uint256,bytes)",
      "arguments": [
        "0x9DdfaCa8183c41ad55329BdeeD9F6A8d53168B1B",
        "2000000000000000000",
        "0x6f8b67ac2dc3a389f139a3783d95a714855cb8ccf50c86b22a4f5ad9b1c2ca57"
      ],
      "transaction": {
        "from": "0xe4267c260090f0cd85aae5dcf1bf581f81df81c6",
        "to": "0x779877a7b0d9e8603169ddbd7836e478b4624789",
        "gas": "0x14cbb",
        "value": "0x0",
        "input": "0x4000aea00000000000000000000000009ddfaca8183c41ad55329bdeed9f6a8d53168b1b0000000000000000000000000000000000000000000000001bc16d674ec80000000000000000000000000000000000000000000000000000000000000000006000000000000000000000000000000000000000000000000000000000000000206f8b67ac2dc3a389f139a3783d95a714855cb8ccf50c86b22a4f5ad9b1c2ca57",
        "nonce": "0x54",
        "chainId": "0xaa36a7"
      },
      "additionalContracts": [],
      "isFixedGasLimit": false
    }
  ],
  "receipts": [
    {
      "status": "0x1",
      "cumulativeGasUsed": "0xbc1908",
      "logs": [
        {
          "address": "0x779877a7b0d9e8603169ddbd7836e478b4624789",
          "topics": [
            "0xddf252ad1be2c89b69c2b068fc378daa952ba7f163c4a11628f55a4df523b3ef",
            "0x000000000000000000000000e4267c260090f0cd85aae5dcf1bf581f81df81c6",
            "0x0000000000000000000000009ddfaca8183c41ad55329bdeed9f6a8d53168b1b"
          ],
          "data": "0x0000000000000000000000000000000000000000000000001bc16d674ec80000",
          "blockHash": "0xfbaf5247f91c055d7dab41405529fc3f608386a2c6e40df47e06e15cfc6d7f7b",
          "blockNumber": "0x8f8168",
          "blockTimestamp": "0x68ed4abc",
          "transactionHash": "0xac3a3ccfdb91632dcf9f2dc306c39900a00e9c69d4e4cf47235e14e8e05ef306",
          "transactionIndex": "0x78",
          "logIndex": "0x80",
          "removed": false
        },
        {
          "address": "0x779877a7b0d9e8603169ddbd7836e478b4624789",
          "topics": [
            "0xe19260aff97b920c7df27010903aeb9c8d2be5d310a2c67824cf3f15396e4c16",
            "0x000000000000000000000000e4267c260090f0cd85aae5dcf1bf581f81df81c6",
            "0x0000000000000000000000009ddfaca8183c41ad55329bdeed9f6a8d53168b1b"
          ],
          "data": "0x0000000000000000000000000000000000000000000000001bc16d674ec80000000000000000000000000000000000000000000000000000000000000000004000000000000000000000000000000000000000000000000000000000000000206f8b67ac2dc3a389f139a3783d95a714855cb8ccf50c86b22a4f5ad9b1c2ca57",
          "blockHash": "0xfbaf5247f91c055d7dab41405529fc3f608386a2c6e40df47e06e15cfc6d7f7b",
          "blockNumber": "0x8f8168",
          "blockTimestamp": "0x68ed4abc",
          "transactionHash": "0xac3a3ccfdb91632dcf9f2dc306c39900a00e9c69d4e4cf47235e14e8e05ef306",
          "transactionIndex": "0x78",
          "logIndex": "0x81",
          "removed": false
        },
        {
          "address": "0x9ddfaca8183c41ad55329bdeed9f6a8d53168b1b",
          "topics": [
            "0x1ced9348ff549fceab2ac57cd3a9de38edaaab274b725ee82c23e8fc8c4eec7a",
            "0x6f8b67ac2dc3a389f139a3783d95a714855cb8ccf50c86b22a4f5ad9b1c2ca57"
          ],
          "data": "0x000000000000000000000000000000000000000000000000c249fdd327780019000000000000000000000000000000000000000000000000de0b6b3a76400019",
          "blockHash": "0xfbaf5247f91c055d7dab41405529fc3f608386a2c6e40df47e06e15cfc6d7f7b",
          "blockNumber": "0x8f8168",
          "blockTimestamp": "0x68ed4abc",
          "transactionHash": "0xac3a3ccfdb91632dcf9f2dc306c39900a00e9c69d4e4cf47235e14e8e05ef306",
          "transactionIndex": "0x78",
          "logIndex": "0x82",
          "removed": false
        }
      ],
      "logsBloom": "0x00000004000000000000000000000000000000000020000000000000020000000000000000000000000000000000000000000000000000000000000000000000000000000000000000000008000000000000000000000000000020000020000008000000000000000000000000000000000000000000000000004010000140000000000000000000000000010000800010000020000000000000000000000000000000000002000000000000010000000000000000000000000004000000000000000002000000000000000000000000000000000000000100000400000000000010000000000000802000000000000000000000000000000000000000000000",
      "type": "0x2",
      "transactionHash": "0xac3a3ccfdb91632dcf9f2dc306c39900a00e9c69d4e4cf47235e14e8e05ef306",
      "transactionIndex": "0x78",
      "blockHash": "0xfbaf5247f91c055d7dab41405529fc3f608386a2c6e40df47e06e15cfc6d7f7b",
      "blockNumber": "0x8f8168",
      "gasUsed": "0xf0e5",
      "effectiveGasPrice": "0x106c71",
      "from": "0xe4267c260090f0cd85aae5dcf1bf581f81df81c6",
      "to": "0x779877a7b0d9e8603169ddbd7836e478b4624789",
      "contractAddress": null
    }
  ],
  "libraries": [],
  "pending": [],
  "returns": {},
  "timestamp": 1760381630478,
  "chain": 11155111,
  "commit": "9dfeb85"
}